:020000040800F2
:10000000900B002051020008E7030008DF030008FE
:10001000E30300082F030008B105000800000000FA
:1000200000000000000000000000000005050008BE
:100030003303000800000000FD030008310500083C
:100040006B0200086B0200086B0200086B020008DC
:100050006B0200086B0200086B0200086B020008CC
:100060006B0200086B0200086B0200086B020008BC
:100070006B0200086B0200086B0200086B020008AC
:100080006B0200086B0200086B0200086B0200089C
:100090006B0200086B0200086B0200086B0200088C
:1000A0006B0200086B0200086B0200086B0200087C
:1000B0006B0200086B0200086B0200086B0200086C
:1000C0006B0200086B0200086B0200086B0200085C
:1000D0006B0200086B0200086B0200086B0200084C
:1000E0006B0200086B0200086B0200086B0200083C
:1000F0006B0200086B0200086B0200086B0200082C
:100100006B0200086B0200086B0200086B0200081B
:100110006B0200086B0200086B0200086B0200080B
:100120006B0200086B0200086B0200086B020008FB
:100130006B0200086B0200086B0200086B020008EB
:100140006B0200086B0200086B0200086B020008DB
:100150006B0200086B0200086B0200086B020008CB
:100160006B0200086B0200086B0200086B020008BB
:100170006B0200086B0200086B0200086B020008AB
:100180006B0200086B0200086B0200086B0200089B
:100190006B0200086B0200086B0200086B0200088B
:1001A00000000000000000006B02000800F002F8F0
:1001B00000F03EF80AA090E8000C82448344AAF1C3
:1001C0000107DA4501D100F033F8AFF2090EBAE8C1
:1001D0000F0013F0010F18BFFB1A43F0010318477B
:1001E000440A0000640A0000103A24BF78C878C1AD
:1001F000FAD8520724BF30C830C144BF04680C602D
:10020000704700000023002400250026103A28BF74
:1002100078C1FBD8520728BF30C148BF0B60704778
:100220001FB500F0E7FC00F037F81FBD10B510BD9A
:1002300000F04EF81146FFF7F3FF00F0C9FC00F0A4
:100240006CF803B4FFF7F2FF03BC00F037F80000CE
:100250000948804709480047FEE7FEE7FEE7FEE75A
:10026000FEE7FEE7FEE7FEE7FEE7FEE70448054996
:10027000054A064B7047000049050008AD0100081B
:1002800090010020900B002090030020900300209C
:10029000704770477047000070B5064C7C44064DAF
:1002A0007D4403E0206820448047241DAC42F9D1FE
:1002B00070BD0000A4090000A80900000149182031
:1002C000ABBEFEE726000200004870472C0100206C
:1002D0007546FFF7F9FFAE4605006946534620F024
:1002E0000700854618B020B5FFF7C0FFBDE82040E5
:1002F0004FF000064FF000074FF000084FF0000BE2
:1003000021F00701AC46ACE8C009ACE8C009ACE894
:10031000C009ACE8C0098D46704710B50446AFF37C
:1003200000802046BDE81040FFF78BBF704700BF3C
:10033000FEE77047F0B50A4600210023002400BF05
:100340003DE0012505FA01F3156805EA03049C4226
:1003500034D105684F000326BE40B54305601579CA
:100360004E00B5400668354305601579012D02D071
:100370001579022D16D185684F000326BE40B5437E
:10038000856055794E00B54086683543856045687F
:1003900001268E40B5434560456896798E40B6B2D9
:1003A00035434560C5684F000326BE40B543C56070
:1003B000D5794E00B540C6683543C560491C102943
:1003C000BFD3F0BD41837047018370474FF6FF7183
:1003D00001600021017141718171C171704700BFDD
:1003E000FEE700BFFEE7704702490143024A116081
:1003F000704700000000FA050CED00E070470000B7
:1004000029B1064A12680243044B1A6004E0034A09
:1004100012688243014B1A60704700003038024076
:10042000F0B5002100220024022500260223324FCD
:100430003F6807F00C0121B1042905D0082937D104
:1004400005E02E4F076036E02C4F076033E02A4F5F
:100450003F1F3F68C7F38056274F3F1F3F6807F095
:100460003F036EB1254FB7FBF3F7DFF88CC0ACF15B
:10047000040CDCF800C0CCF3881C07FB0CF40CE087
:100480001E4FB7FBF3F7DFF870C0ACF1040CDCF8DB
:1004900000C0CCF3881C07FB0CF4174F3F1F3F68CC
:1004A000C7F301477F1C7D00B4FBF5F7076002E04E
:1004B000124F076000BF00BF0F4F3F6807F0F00109
:1004C00009090F4F7A5C0768D74047600A4F3F68B9
:1004D00007F4E051890A0A4F7A5C4768D740876081
:1004E000054F3F6807F46041490B054F7A5C476848
:1004F000D740C760F0BD0000083802400024F40077
:10050000310000207047042808D14FF0E02109692C
:1005100041F004014FF0E022116107E04FF0E021CB
:10052000096921F004014FF0E022116170470000D9
:1005300010B5034800F05BFA024800F005FB10BD5F
:10054000740000206000002010B51548006840F4D9
:100550007000134908601348006840F00100114919
:10056000086000200F49083108600E4800680E49F5
:1005700008400C4908600D48091D0860081F006804
:1005800020F48020091F0860002006490C31086013
:1005900000F034F94FF0006001498039086010BD67
:1005A00088ED00E000380240FFFFF6FE1030002426
:1005B00000BFFEE710B504464FF400600F49088005
:1005C000204600F0F5F84FF480600C490880204682
:1005D00000F0EEF809480838006800F4006008B13F
:1005E000012300E000234FF480600449891C088047
:1005F000204600F0DDF8184610BD00001804024047
:100600001CB5044601210220FFF7FAFE01208DF8F7
:1006100004008DF806008DF8070003208DF8050012
:100620008002009069460348FFF784FE204600F0F0
:10063000ABF81CBD0004024030B505460B46002453
:1006400027E003F0800020B14FF4006012490880D9
:1006500004E04FF400601049891C0880284600F02F
:10066000A7F84FF480600C490880284600F0A0F8F5
:100670004FF480600849891C0880072C02D1400093
:10068000891E08805806030E284600F091F8601C69
:10069000C4B2082CD5DB30BD1804024038B504467E
:1006A00004201B4B0122AA210090204600F034F8C0
:1006B0004FF4FA71174800F09EF90420144B1B1DEB
:1006C0000122AA210090204600F026F84FF4FA718A
:1006D000104800F090F904200D4B08330122AA21A4
:1006E0000090204600F018F84FF4FA71094800F025
:1006F00082F90420064B0C330122AA2100902046E7
:1007000000F00AF84FF4FA71024800F074F938BDAD
:100710000D000020740000202DE9F04307468846B4
:1007200015461E46DDF81C90384600F049F8414653
:100730003846FFF781FF3846FFF73CFF28B13846BF
:1007400000F022F80120BDE8F08329463846FFF783
:1007500073FF3846FFF72EFF00240EE0315D384668
:10076000FFF76AFF3846FFF725FF20B1384600F053
:100770000BF80120E7E7601CC4B24C45EEDB3846BD
:1007800000F002F80020DEE700B503464FF40060F9
:10079000064908804010891E0880184600F008F8B5
:1007A0004FF400600149891E088000BD1A04024010
:1007B0000146002001E0421CD0B23228FBDB70472A
:1007C00000B503464FF400600B49088040100880D4
:1007D0001846FFF7EDFF4FF400600749891C0880B9
:1007E0001846FFF7E5FF4FF480600349891C088035
:1007F0001846FFF7DDFF00BD180402400CB50020CD
:10080000019000904148006840F480303F49086002
:1008100000BF3E48006800F4003000900198401C82
:100820000190009818B90198B0F5A04FF1D1374860
:10083000006800F4003010B10120009001E00020B9
:1008400000900098012860D130484030006840F0A6
:1008500080502E49403108602D48006840F44040E7
:100860002B49086029480830006828490831086089
:100870000846006840F4004008600846006840F4FC
:10088000A05008602348091F0860081F006840F056
:100890008070091F086000BF1C48006800F00070ED
:1008A0000028F9D01A48006840F4803018490860E0
:1008B00000BF1748406800F480300028F9D0144881
:1008C000006840F400301249086000BF10484068DA
:1008D00000F400300028F9D040F205700E4908609D
:1008E0000A480830006820F0030008490831086011
:1008F0000846006840F00200086000BF0348083066
:10090000006800F00C000828F8D10CBD0038024047
:1009100000700040185A4007003C024010B50446E1
:10092000FFF712FE4FF48060FFF75EFD044800F011
:100930000DF8044800F07CF80348FFF761FE10BD95
:10094000740000202C000020300000202DE9FF4121
:1009500005466846FFF764FD4FF47A710198B0FBD5
:10096000F1F4E4082146481EB0F1807F00D31BE07B
:10097000481E4FF0E022506150170F22002807DA7E
:1009800013071F0E0B4B00F00F06361F9F5503E099
:1009900013071E0E084B1E5400BF00204FF0E0222C
:1009A00090610720106100BF6FF00400FFF7ABFDFE
:1009B000BDE8FF8118ED00E000E400E010B501465D
:1009C0000A684FF0E0235B694FF0E024A4691B1B29
:1009D0004FF47A7463434FF0E0246469B3FBF4F39B
:1009E00002EB4204C4EBC21403EBC40010BD016867
:1009F000491C0160704730B505460C4604E04FF4D1
:100A00007A71284600F005F8201EA4F10104F6D101
:100A100030BD70B505460C462846FFF7CFFF0646A9
:100A200000BF2846FFF7CAFF801BA042F9D370BD64
:100A30001CB504466846FFF7C9FC01211020FFF7EA
:100A4000DFFC01208DF8040000208DF80600012055
:100A50008DF805000003009069461048FFF76AFC16
:100A60004FF480510D48FFF7AFFC01210846FFF716
:100A7000C7FC01208DF8040000208DF8060001203D
:100A80008DF805004002009069460548FFF752FCCA
:100A90004FF400710248FFF797FC1CBD00100240A4
:100AA0000000024010B504464FF480510148FFF7A2
:100AB00089FC10BD0010024022494988491C09B236
:100AC000204A518011468988491C09B291801146FB
:100AD000C988491C09B2D18011460989491C09B24B
:100AE000118111464989491C09B2518111468989F0
:100AF000491C09B291811146C989491C09B2D181A9
:100B00001146098A491C09B211821146498A491CB9
:100B100009B251821146898A491C09B29182114653
:100B2000C98A491C09B2D18211460978012904D128
:100B300011464978491C517002E00121014A1170A7
:100B4000704700004400002000B5034640F2E73142
:100B5000D868884206DAD868401CD8601846FFF783
:100B6000ABFF1CE00020D86098683B2803DA986847
:100B7000401C986013E00020986058683B2803DA16
:100B80005868401C58600AE0002058601868172810
:100B900003DA1868401C186001E00020186000BDEE
:100BA0000248034903490160704700000400002027
:100BB000140C0008080C00080248034903490160AE
:100BC000704700002C000020140C0008200C0008C6
:100BD0000548FFF7A3FE05E00448FFF763FF04485C
:100BE000FFF75CFDF8E70000000000202C0000206B
:100BF000300000204FF04070E1EE100A7047000016
:100C000000000000000000000000000000000000E4
:100C100000000000000000000000000000000000D4
:100C2000310A00084C0C00080000002044000000BD
:100C3000E8010008900C0008440000204C0B000064
:100C4000040200085DFFFFFF71FFFFFF00000000CE
:100C500000000000000000000000000F03000F0073
:100C6000030F000003000F0F030F0F0F030F000F00
:100C7000030000000300000000000000000000006E
:100C80000001020304010203040607080900000032
:04000005080001AD41
:00000001FF
